:020000040800F2
:10000000D0650020110A0008E50500087706000801
:100010007B0600087F060008830600080000000039
:10002000000000000000000000000000870600083B
:100030008906000800000000D7A000088B06000811
:100040002B0A00082B0A00082B0A00089B06000850
:100050002B0A00082B0A00082B0A000833070008A7
:1000600035070008370700082B0A00082B0A00088C
:100070002B0A00082B0A00082B0A00082B0A00088C
:100080002B0A00082B0A00082B0A00082B0A00087C
:10009000F77700082B0A00082B0A00083107000830
:1000A0002B0A00082B0A00082B0A00082B0A00085C
:1000B0002B0A00082B0A00082B0A00082B0A00084C
:1000C0002B0A00082B0A00082B0A00082B0A00083C
:1000D0002B0A0008E7050008210600082B0A000883
:1000E000B30600082B0A00082B0A00082B0A000898
:1000F0002B0A00082B0A00082B0A00082B0A00080C
:100100002B0A00082B0A00082B0A00082B0A0008FB
:100110002B0A00082B0A00082B0A00082B0A0008EB
:100120002B0A00082B0A00082B0A00082B0A0008DB
:1001300000F002F800F03CF80AA090E8000C8244BD
:100140008344AAF10107DA4501D100F031F8AFF29A
:10015000090EBAE80F0013F0010F18BFFB1A43F0A5
:1001600001031847A4E20000C4E20000103A24BFD3
:1001700078C878C1FAD8520724BF30C830C144BF0C
:1001800004680C607047000000230024002500264E
:10019000103A28BF78C1FBD8520728BF30C148BFEA
:1001A0000B6070471FB50DF040FE1FBD10B510BDB0
:1001B0000CF088FC1146FFF7F5FF00F089F90CF010
:1001C000A6FC03B4FFF7F2FF03BC0CF0ADFC00008B
:1001D00010B500F09DFB10BD08B547F6FF7003F0A9
:1001E00035FF4FF6E07300932823462200210A20B2
:1001F00003F02EFC4FF6E07300930023CDA20A21FA
:10020000142003F08FFC1F23009328239622002143
:100210005A2003F01DFC4FF6E07300930023C7A2A1
:100220000A215F2003F07EFC4FF4784300932823DB
:10023000E6220021AA2003F00BFC4FF6E0730093A6
:100240000023C0A20A21AF2003F06CFC4FF6E0733C
:100250000093642346223C210A2003F0F9FB4FF669
:10026000E07300930023B9A246210F2003F05AFC4B
:100270001F230093642396223C215A2003F0E8FBBD
:100280004FF6E07300930023B2A24621672003F0EB
:1002900049FC4FF4784300936423E6223C21AA20D2
:1002A00003F0D6FB4FF6E07300930023ABA2462188
:1002B000AC2003F037FC4FF6E0730093A0234622F6
:1002C00078210A2003F0C4FB4FF6E073009300236B
:1002D000A4A282210F2003F025FC1F230093A0235A
:1002E000962278215A2003F0B3FB4FF6E073009377
:1002F00000239EA282215D2003F014FC4FF478437A
:100300000093A023E6227821AA2003F0A1FB4FF658
:10031000E0730093002397A28221B72003F002FC30
:100320004FF6E0730093DC236E22B4210A2003F021
:100330008FFB4FF6E0730093002390A2BE211420A0
:1003400003F0F0FB4FF478430093DC23E622B42162
:10035000822003F07DFB4FF6E073009300238AA216
:10036000BE21942003F0DEFB4FF6E07300934FF4C0
:100370008C734622F0210A2003F06AFB4FF6E073EB
:100380000093002383A2FA210F2003F0CBFB1F234D
:1003900000934FF48C739622F0215A2003F058FBFF
:1003A0004FF6E073009300237CA2FA21642003F04F
:1003B000B9FB4FF4784300934FF48C73E622F0219D
:1003C000AA2003F045FB4FF6E0730093002375A2CB
:1003D000FA21B62003F0A6FB4FF6E07300934FF42A
:1003E000AA7346224FF496710A2003F031FB4FF6B0
:1003F000E073009300236DA24FF49B710F2003F074
:1004000091FB1F2300934FF4AA73962251005A20A8
:1004100003F01EFB4FF6E0730093002365A24FF438
:100420009B71692003F07EFB4FF4784300934FF4F7
:10043000AA73E6224FF49671AA2003F009FB4FF647
:10044000E073009300235DA24FF49B71AE2003F094
:1004500069FB4FF6E073009340F28F133C224FF498
:10046000B471002003F0F4FA4FF6E0730093002318
:1004700054A24FF4B971022003F054FB1F230093E0
:1004800040F28F1382224FF4B471462003F0E0FA59
:100490004FF6E073009300234CA24FF4B97148204B
:1004A00003F040FB4FF47843009340F28F13C822CF
:1004B0004FF4B4718C2003F0CBFA4FF6E073009345
:1004C000002344A24FF4B9718E2003F02BFB08BD2A
:1004D00010B500F041F9FFF77BFE03F09DFC02F040
:1004E000BEFF04F0F0F8FFF777FE04F0E7F904F040
:1004F000FFF904F013FA04F027FA04F079FA04F093
:100500007BFB04F017FF05F055F805F095F805F0B2
:1005100063F906F087FB06F04FFD07F034FE3C233D
:100520002E4A00212E4809F025F907F04DFF002042
:1005300010BD00004C4544B5C6000000B7E4C3F947
:10054000C6F70000CAFDC2EBB9DC00004144D7AADF
:10055000BBBB0000B0B4BCFC000000004453313809
:1005600042323000454550524F4D0000525443CA6C
:10057000B1D6D300BAECCDE200000000B6C0C1A2F3
:10058000BFB4C3C5B9B70000D7D6BFE2B8FCD0C26C
:1005900000000000B5CDB9A6BAC40000464C4153D6
:1005A000480000005344BFA80000000041445833F5
:1005B000343500005352414D000000004441D7AA99
:1005C000BBBB0000434F4DCDA8D0C500343835CD5E
:1005D000A8D0C50043414ECDA8D0C500DC01002005
:1005E0003DA10008704710B54021534802F0B4F90E
:1005F00040F22551504802F0B8F980B14E4802F05F
:1006000034F94E490870084601784B4802F029F940
:1006100000BF8021484802F092F90028F9D010BDAF
:1006200010B54021464802F097F940F22551444860
:1006300002F09BF9F0B1424802F017F94149087005
:100640000821414800F00FFB012000F0CEF83D48A2
:1006500001783B4802F005F900BF8021384802F0DC
:100660006EF90028F9D0022000F0BFF808213648C2
:1006700000F0FBFA10BD00BFFEE700BFFEE700BFC1
:10068000FEE700BFFEE77047704710B507F091FD29
:1006900007F0D1FE07F0A8FD10BD10B5012001F054
:1006A00077FD28B1012001F084FD01202749087061
:1006B00010BD2DE9F04100240026002530E04FF464
:1006C0000041214800F0B5FA012829D105F0BFF812
:1006D0000446FA2C00DB24E0C82C03DBFA2C01DAF8
:1006E00001260AE03C2C03DB5A2C01DA012704E046
:1006F0000A2C02DB322C00DA0027012E0ED114481E
:1007000000684000124908600846006838440860E4
:10071000202D03DB01200F49087002E0681CC5B2E0
:10072000CDE700BF4FF4004001F057FEBDE8F08177
:100730007047704770477047003801400000002044
:10074000004400400100002000200140580000202B
:100750005C0000206000002010B56FF0040000F085
:100760004EFD344800683449B0FBF1F0334908705D
:10077000304800683049B0FBF1F441F2883044431E
:1007800005202F4908804FF0E020006940F002006A
:100790004FF0E021086108464461006940F0010023
:1007A000086110BD70B5034600224FF0E026756960
:1007B000224E367803FB06F400BF4FF0E026B16905
:1007C00010E04FF0E026B06988420BD0884202D298
:1007D0000E1A324402E02E1A0E4432440146A2425E
:1007E00000D300E0EDE700BF70BD70B504461548CA
:1007F0000078012811D112480088844206DB104895
:10080000008894FBF0F5284609F006FB0C480088A8
:1008100094FBF0F100FB114084B24FF47A7104FBB9
:1008200001F0FFF7BFFF70BD00BF0100A0F10100A4
:10083000FBD170470800002000127A00030000205E
:1008400004000020A600002000210020674A126852
:1008500042F48032654B1A6000BF644A126802F4A9
:100860000030491C10B9B1F5A06FF6D15F4A12688B
:1008700012F4003F01D0012000E00020012842D105
:100880005B4A126842F01002594B1A601A4612680D
:1008900022F003021A601A46126842F002021A603D
:1008A000524A5268514B5A601A4652685A601A4668
:1008B000526842F480625A601A46526822F47C12EE
:1008C0005A601A46526842F4E8125A601A46126890
:1008D00042F080721A6000BF444A126812F0007F32
:1008E000FAD0424A526822F00302404B5A601A463C
:1008F000526842F002025A6000BF3C4A526802F05D
:100900000C02082AF9D1704710B5FFF79DFF10BD02
:1009100010B53648006840F00100344908600846C8
:100920004068344908403149486008460068324907
:1009300008402E4908600846006820F480200860BE
:100940000846406820F4FE0048604FF41F008860AD
:10095000FFF7DAFF4FF000602849086010BD10B5BE
:10096000002100200022214B5B6803F00C0121B123
:10097000042906D0082928D107E0214B214C236007
:1009800027E01F4B1F4C236023E0184B5B6803F4E8
:100990007010164B5B6803F48032022303EB904027
:1009A00022B9194B4343174C23600DE00F4B5B6892
:1009B00013F4003F04D0144B4343124C236003E074
:1009C0000F4B43430F4C236003E00D4B0D4C236052
:1009D00000BF00BF054B5B68C3F303130B4CE15C26
:1009E000084B1B68CB40074C236010BD0010024031
:1009F000002002400000FFF8FFFFF6FE08ED00E0D7
:100A000000127A000800002000093D000C000020C0
:100A10000948804709480047FEE7FEE7FEE7FEE792
:100A2000FEE7FEE7FEE7FEE7FEE7FEE704480549CE
:100A3000054A064B70470000110900083101000803
:100A4000D05F0020D0650020D0610020D061002060
:100A500010B50446CA48844208D10121042000F0A0
:100A600024FB0021042000F020FB46E0C54884421E
:100A700008D10121082000F018FB0021082000F017
:100A800014FB3AE0C048844208D10121102000F054
:100A90000CFB0021102000F008FB2EE0BB48844234
:100AA00008D10121202000F000FB0021202000F0CF
:100AB000FCFA22E0B648844208D10121402000F02F
:100AC000F4FA0021402000F0F0FA16E0B148844228
:100AD00008D10121802000F0E8FA0021802000F0F8
:100AE000E4FA0AE0AC48844207D10121801500F005
:100AF000DCFA0021A01500F0D8FA10BD10B50121D4
:100B0000084600F0D2FA0021012000F0CEFA10BD14
:100B10002DE9F04102460025002600200023002494
:100B2000002791F803C00CF00F0591F803C01CF0EA
:100B3000100F03D091F802C04CEA0505B1F800C0CF
:100B40001CF0FF0F31D0146800202BE04FF0010C97
:100B50000CFA00F3B1F800C00CEA03069E4220D163
:100B600083004FF00F0C0CFA03F7BC4305FA03FCAB
:100B70004CEA040491F803C0BCF1280F06D14FF0F1
:100B8000010C0CFA00FCC2F814C00AE091F803C092
:100B9000BCF1480F05D14FF0010C0CFA00FCC2F873
:100BA00010C0401C0828D1D31460B1F800C0BCF1BB
:100BB000FF0F34DD546800202EE000F1080C4FF0E8
:100BC000010808FA0CF3B1F800C00CEA03069E42D3
:100BD00021D183004FF00F0C0CFA03F7BC4305FA48
:100BE00003FC4CEA040491F803C0BCF1280F05D1C2
:100BF00000F1080C08FA0CF8C2F8148091F803C050
:100C0000BCF1480F07D100F1080C4FF0010808FAB9
:100C10000CF8C2F81080401C0828CED35460BDE800
:100C2000F0814FF6FF710180022181700421C170B3
:100C300070470246002093680B4201D0012000E07B
:100C4000002070470146886880B270470246002045
:100C5000D3680B4201D0012000E00020704701461C
:100C6000C86880B2704701617047416170470AB13E
:100C7000016100E041617047C16070474FF480320C
:100C80000A4382618161826182698269704702469A
:100C90000020424B18684FF68073184040EA02105B
:100CA00008433E4B186070473D49C8617047F0B536
:100CB0000A46002300240021002500F00046B6F17A
:100CC000004F02D1354EF16901E0344E7168C0F336
:100CD000034583B200F44016B6F5401F08D121F059
:100CE00070612E4E766826F070662C4F7E6012E0A2
:100CF00000F48016B6F5801F06D1032606FA05F427
:100D0000A14341F0706106E0460D360103FA06F694
:100D1000B14341F0706122B1460D360103FA06F687
:100D2000314300F00046B6F1004F02D11B4EF16195
:100D300001E01A4E7160F0BD30B500228B071C0F28
:100D40000F2303FA04F2154B08338C1053F82430A8
:100D50009343124C08348D1044F8253023468C10F0
:100D600053F824308C07240F00FA04F423430B4C6F
:100D700008348D1044F8253030BD0A4908607047AA
:100D800000080140000C0140001001400014014027
:100D900000180140001C01400020014000000140FB
:100DA00000002042DC002042DB48006840F00100E7
:100DB000D949086008464068D8490840D649486083
:100DC00008460068D6490840D349086008460068CC
:100DD00020F4802008600846406820F4FE00486047
:100DE0004FF41F0088607047CB49096821F48031B7
:100DF000C94A11601146096821F480211160B0F5DB
:100E0000803F03D0B0F5802F0ED106E0C2490968BB
:100E100041F48031C04A116007E0BF49096841F4DC
:100E2000A021BD4A116000E000BF00BF704710B5AF
:100E300001460022002300204A11012A02D1B64CAB
:100E4000236806E0022A02D1B34C236A01E0B24CC7
:100E5000636A01F01F02012494401C4201D001206A
:100E600000E0002010BD70B500240025002600BF62
:100E70003120FFF7DCFF0646641CB4F5A06F01D0FB
:100E8000002EF5D03120FFF7D2FF08B1012500E098
:100E90000025284670BD014600209F4A106820F0BA
:100EA000F80040EAC100106070479E490860704732
:100EB00002460020984B586820F47C1042EA010357
:100EC0001843954B5860704796490866704701462D
:100ED0000020914A506820F003000843506070479A
:100EE0008D48406800F00C007047014600208A4A97
:100EF000506820F0F0000843506070470146002021
:100F0000854A506820F4E06008435060704701460D
:100F10000020814A506820F4605040EAC1005060CF
:100F2000704729B17C4A527A02437B4B5A7206E0E1
:100F3000794A527AC343DBB21A40774B5A727047F0
:100F400079490860704701460020734A506820F4D0
:100F500040400843506070470021744A11706E4A47
:100F600082F82010012802D0042808D103E00121D2
:100F70006E4A117004E005216C4A117000E000BF58
:100F800000BF70476A49086070476349096A0143B6
:100F9000614A1162704767490860704730B50021A7
:100FA0000022002400235C4D6D6805F00C0121B186
:100FB000042905D0082923D105E05F4D056022E012
:100FC0005D4D05601FE0544D6D6805F47012524D83
:100FD0006D6805F48034022505EB92421CB9574D2B
:100FE000554305600BE04C4D6D6815F4003F03D090
:100FF000524D5543056002E04F4D5543056002E0F8
:101000004D4D056000BF00BF434D6D6805F0F00118
:1010100009094B4D6B5C0568DD4045603E4D6D68D0
:1010200005F4E061090A464D6B5C4568DD4085606A
:10103000394D6D6805F46051C90A414D6B5C4568D6
:10104000DD40C560344D6D6805F44041890B3D4D70
:101050006B5CC568B5FBF3F5056130BD29B12E4A5F
:10106000526902432C4B5A6104E02B4A5269824375
:10107000294B5A61704729B1274A92690243264B8E
:101080009A6104E0244A92698243234B9A61704733
:1010900029B1214AD26902431F4BDA6104E01E4A9A
:1010A000D26982431C4BDA61704729B11A4AD2686F
:1010B0000243194BDA6004E0174AD2688243164BA8
:1010C000DA60704729B1144A12690243124B1A615F
:1010D00004E0114A126982430F4B1A6170471A49A2
:1010E000086070470F49C86470470B49C871704762
:1010F0000948406A40F080700749486270470146DD
:101100000020054A92680A4201D0012000E0002038
:101110007047014988727047001002400000FFF8D4
:10112000FFFFF6FE00004242D8004242201002407B
:10113000800442423C04424200127A0000093D0011
:101140001C0000202C00002040044242364901438C
:10115000364A1160704770B5002100230F22C47811
:101160004CB3324C246804F4E064C4F5E0644FEA04
:101170001421C1F1040322FA01F2447804FA03F1C4
:10118000847804EA020444EA01014FEA0111284C80
:101190000678A155047804F01F054FF0010404FA05
:1011A00005F405784FEA65154FF0E02606EB850556
:1011B000C5F8004109E0047804F01F050124AC40A3
:1011C0001C4D0678761145F8264070BD1A4A0A4033
:1011D00002431A4B1A60704741B1194A126842EA39
:1011E00000024FF0E023C3F8102D07E0144A126804
:1011F00022EA00024FF0E023C3F8102D70470428C4
:1012000008D14FF0E021096941F004014FF0E022DC
:10121000116107E04FF0E021096921F004014FF06E
:10122000E0221161704700000000FA050CED00E0BB
:1012300000E400E080E100E080FFFF1F08ED00E037
:1012400010ED00E030B943F2DB014FF0204242F8EC
:10125000201005E043F2D2014FF0204242F8201066
:101260006FF07042411C4FF0204343F8212011469B
:101270001A4602EB8002C2F80411704710280AD106
:1012800018214FF020421166402151664FF0FC3189
:101290009166D16610E01821F84A11604FF04001C4
:1012A0004FF02042C2F884104FF0FC31F44A116034
:1012B0004FF02042C2F88C1070471820F1490860A6
:1012C0004FF000004FF02041C1F8A4004FF0FC3077
:1012D000ED49086001F10401086001F104010860B2
:1012E0007047D0E901121143C268114302691143EA
:1012F0004269114382691143C2691143026A114371
:10130000426A1143826A1143C26A1143026B11435C
:101310004FF02043026843F822108168082908D161
:101320001A46016852F8211041F04001026843F862
:101330002210416B0968426B526841EA0211426B0C
:10134000926841EA0221426BD26841EA0241426B53
:10135000126941EA0251426B526941EA0261426BF1
:10136000926911430268521C4FF0204343F8221047
:10137000C16AB1F5804F1AD1816B0968826B5268DE
:1013800041EA0211826B926841EA0221826B126982
:1013900041EA0251826B526941EA0261826B9269B1
:1013A0001143026803EB8202C2F8041108E06FF0F7
:1013B00070414FF02043026803EB8202C2F804112F
:1013C000704730B5002100220023446844F008042F
:1013D00085682C43C5682C4305692C43456944EA5C
:1013E0004524856944EA4531C4692468C5696D6846
:1013F00044EA0524C569AD6844EA0544C569ED6859
:1014000044EA0562046A2468056A6D6844EA0524B2
:10141000056AAD6844EA0544056AED6844EA056377
:101420000468102C05D14FF020442166A266E366C3
:1014300007E0924C21604FF02044C4F88820934C80
:10144000236030BD016841F01001426841EA422149
:10145000826841EA42318B4A1160C1680968C268FA
:10146000526841EA0221C268926841EA0241C268B8
:10147000D26841EA0261844A11600169096802691F
:10148000526841EA02210269926841EA0241026916
:10149000D26841EA02617E4A116041690968426985
:1014A000526841EA02214269926841EA0241426976
:1014B000D26841EA02614FF02042C2F8B010704792
:1014C000002101600221416000218160C160016151
:1014D00041618161C16101624FF480514162490003
:1014E00081620021C16201630F21426B1160426B76
:1014F0005160FF21426B91600F21426BD160426BC2
:101500001161426B51610021426B91610F21826B2D
:101510001160826B5160FF21826B91600F21826BA1
:10152000D160826B1161826B51610021826B91618C
:10153000704710210160002141608160C16001613C
:1015400041618161FC21C2691160C2695160C26957
:101550009160C269D160026A1160026A5160026AD8
:101560009160026AD1607047002101604160816032
:10157000FC21C2681160C2685160C2689160C26893
:10158000D16002691160026951600269916002696B
:10159000D16042691160426951604269916042695B
:1015A000D160704751B14FF0204252F8202042F0F4
:1015B00001024FF0204343F8202009E04FF0204281
:1015C00052F82020334B1A404FF0204343F820209C
:1015D000704799B1102808D14FF02042126E42F0A6
:1015E00004024FF020431A661DE0244A126842F0BC
:1015F00004024FF02043C3F8802014E0102809D1E2
:101600004FF02042126E234BDB1E1A404FF0204356
:101610001A6608E0194A12681F4B02EA03024FF0EB
:101620002043C3F88020704740B11649096841F053
:1016300004014FF02042C2F8A01008E011490968E7
:10164000154A01EA02014FF02042C2F8A01070478B
:1016500099B1102808D14FF02042126E42F040029A
:101660004FF020431A662DE0044A126842F040020F
:101670004FF02043C3F8802024E00FE0800000A05A
:10168000880000A0A00000A0A80000A08C0000A07E
:10169000AC0000A0FEFF0F00FBFF0F00102808D1D8
:1016A0004FF02042126E684B1A404FF020431A66EA
:1016B00008E0664A1268644B02EA03024FF02043D6
:1016C000C3F88020704701460020102903D14FF055
:1016D0002042506F01E05E4A1068704710B5F2B1C9
:1016E000102807D14FF020435B6E0B434FF020448E
:1016F000636632E0B0F5807F08D1564B1B6843EA41
:1017000001034FF02044C4F8843026E0524B1B689C
:1017100043EA01034FF02044C4F8A4301DE0102830
:1017200007D14FF020435B6E8B434FF0204463663C
:1017300013E0B0F5807F08D1464B1B6823EA010314
:101740004FF02044C4F8843007E0434B1B6823EA81
:1017500001034FF02044C4F8A43010BD10B5024678
:1017600000200023102A03D14FF02044636E07E0CD
:10177000B2F5807F02D1374C236801E0364C2368F4
:101780000B4201D0012000E0002010BD102807D13D
:101790004FF02042526E8A434FF020435A6613E0C6
:1017A000B0F5807F08D12B4A126822EA01024FF07F
:1017B0002043C3F8842007E0274A126822EA010286
:1017C0004FF02043C3F8A420704770B502460020B4
:1017D000002300240025102A03D14FF02046736E09
:1017E00007E0B2F5807F02D11A4E336801E01A4E4D
:1017F000336803EA010403EAD10514B10DB10120F5
:1018000000E0002070BD102808D14FF02042526E39
:1018100022EAD1024FF020435A6613E0B0F5807FF0
:1018200008D10C4A126822EAD1024FF02043C3F8D3
:10183000842007E0084A126822EAD1024FF02043D0
:10184000C3F8A42070470000BFFF0F00800000A075
:10185000940000A0840000A0A40000A010B50446DD
:10186000BF48844208D101218014FFF71EFC0021EB
:10187000A014FFF71AFC16E0BA48844208D10121EF
:101880000014FFF71FFC00212014FFF71BFC0AE0E7
:10189000B548844207D10121C013FFF713FC002192
:1018A000E013FFF70FFC10BD10B50022028802F410
:1018B00041520B884C8823438C882343CC88234394
:1018C0000C8923434C8923438C892343CC892343AC
:1018D0001A430280838B4FF2FF74234083830B8A69
:1018E000038210BD2DE9F04F85B005460C464FF040
:1018F000000902274FF000084FF0010B0026B24606
:10190000A88B4FF240010840A88302202884B5F834
:101910001C90A068022801D100BF36E0A08810B951
:101920004FF0010B01E04FF0020B8E48854200D1D1
:1019300000E000BF6846FFF731FBDDF800A0E0885B
:10194000B0F5007F0AD14FEA1A2000EB800040007A
:10195000A168B0FBF1F0401D86B20BE04FEA4B10DE
:10196000BAFBF0F000EB80004000A168B0FBF1F0A2
:10197000401D86B20A20B6FBF0F606F00108A6EB81
:101980000800C0F34F074FEA0828022F01DBFF2FA2
:1019900002DD02274FF00008E08840EA08003843E3
:1019A0002884A088A18908436188084321880843C6
:1019B00040F4006040EA0909A5F81C9005B0BDE8B4
:1019C000F08F0021018041808180C18001814181AF
:1019D0008181C181072101827047002101804180FE
:1019E0008180C1800221816000218181704721B105
:1019F000028842F04002028004E002884FF6BF7382
:101A00001A400280704721B1828B42F48062828347
:101A100004E0828B4FF6FF331A408283704770B523
:101A2000002400230C110125A540ABB21AB1858812
:101A30001D43858004E08588DE43B6B2354085804D
:101A400070BD10B51AB183880B43838004E083888E
:101A5000CC43A4B22340838010BD818170470146EE
:101A600088897047A1F57E42FF3A04D0028842F48B
:101A70008072028004E002884FF6FF631A40028001
:101A8000704721B1828842F00402828004E082889B
:101A90004FF6FB731A408280704702884FF2FF7343
:101AA0001A40028002880A4302807047018841F48C
:101AB00080510180704721B1028842F400520280B7
:101AC00004E002884DF6FF731A4002807047024618
:101AD0000020012901D0108B00E0908A7047014658
:101AE000088A7047B1F5804F04D1028842F48042E1
:101AF000028004E002884BF6FF731A4002807047B0
:101B00000246002013890B4201D0012000E0002092
:101B10007047CA4302817047F0B502460020002496
:101B20000023002501F00F070126BE40B4B20B11BF
:101B300001269E40B3B2968806EA0305168926421E
:101B400002D00DB1012000E00020F0BD10B5002250
:101B500001F00F040123A3409AB2D343038110BDC7
:101B60000030014000380040003C004010B5044601
:101B7000F848844208D101214015FFF796FA002168
:101B80006015FFF792FA17E0F348844208D101216B
:101B90000015FFF78AFA00212015FFF786FA0BE0FF
:101BA000EE48844208D10121C803FFF77EFA0021E4
:101BB0004FF40040FFF779FA10BD30B5024600201F
:101BC00000235068E64C20400D790C6844EA052457
:101BD000204350609068E34C2040D1E902542C43EC
:101BE0004D7944EA450420439060D06A20F47000A7
:101BF0000C7C641EE4B2234340EA0350D06230BD43
:101C000000210160017141718160C1600121017495
:101C1000704721B1826842F00102826003E082686D
:101C200022F001028260704721B1826842F4807222
:101C3000826003E0826822F480728260704710B58F
:101C40000023CBB21AB144681C43446002E04468EC
:101C50009C43446010BD816841F008018160704779
:101C6000014600208A6812F0080F01D0012000E030
:101C700000207047816841F004018160704701468F
:101C800000208A6812F0040F01D0012000E000203B
:101C9000704721B1826842F4A002826003E082684A
:101CA00022F4A00282607047014600208A6812F484
:101CB000800F01D0012000E00020704710B50A46D7
:101CC00000210023416821F46041531E41EA433161
:101CD000416010BD21B1426842F40062426003E0FD
:101CE000426822F4006242607047F0B504460D4637
:101CF00000200021092D11DDE068A5F10A0606EBA0
:101D00004607072606FA07F18843A5F10A0606EBFF
:101D1000460603FA06F10843E0600CE0206905EB93
:101D20004507072606FA07F1884305EB450603FA3F
:101D300006F108432061072A0FDA606B561E06EB96
:101D400086071F2606FA07F18843561E06EB86060D
:101D500005FA06F10843606322E00D2A0FDA206BD2
:101D6000D61F06EB86071F2606FA07F18843D61F03
:101D700006EB860605FA06F10843206310E0E06AE8
:101D8000A2F10D0606EB86071F2606FA07F1884327
:101D9000A2F10D0606EB860605FA06F10843E0629D
:101DA000F0BD21B1826842F48012826003E0826853
:101DB00022F48012826070470146C86C80B270477E
:101DC00069480068704721B1426842F4806242600D
:101DD00003E0426822F480624260704721B14268A9
:101DE00042F48052426003E0426822F48052426032
:101DF00070470A460021816821F4E0411143816067
:101E0000704721B1826842F40042826003E0826838
:101E100022F400428260704721B1826842F40212CB
:101E2000826003E0826822F40212826070470146F9
:101E300000208A6812F4001F01D0012000E0002079
:101E40007047F0B5044615460020002200260929F7
:101E500011DDE068A1F10A0707EB470C072707FA35
:101E60000CF29043A1F10A0707EB470703FA07F2C8
:101E70001043E0600CE0206901EB410C072707FAF2
:101E80000CF2904301EB410703FA07F21043206183
:101E9000A06BC0F30156EF1C06F1010CA7EB0C0779
:101EA00007EB870C1F2707FA0CF29043EF1C06F193
:101EB000010CA7EB0C0707EB870701FA07F21043A9
:101EC000A063F0BD10B50A4600210023816B21F408
:101ED0004011531E41EA0351816310BD10B5002328
:101EE00003460B441A6010BD02460023134601F15D
:101EF00028000344186880B270470A4600214168F0
:101F00001A4B194011434160704741628262704729
:101F10000A460021416821F01F01114341607047CA
:101F200038B11349096841F40001124AC2F8081493
:101F300006E00F49096821F400010E4AC2F80814AE
:101F400070470246002013680B4201D0012000E0D8
:101F5000002070470024014000280140003C01405F
:101F6000FFFEF0FFFDF7F1FF4C240140FFFD3FFFB6
:101F70000824014000200140CA430260704770B548
:101F800002460020002300240B125568CEB205EA59
:101F9000060415681D4202D00CB1012000E00020AB
:101FA00070BD00220A12D3430360704710B50120B0
:101FB000FFF795F80020FFF792F810BD244908605C
:101FC00070472449086070472349086070470146FC
:101FD0000020224A10884FF67F4200EA020040EAC1
:101FE00001001F4AA2F82C0C7047014600201B4A32
:101FF00010884FF6807200EA020040EA0100184A99
:10200000A2F82C0C70470022144A2C3A02441160AA
:10201000704701460022114A2C3A0A441088704742
:1020200010480068C0B270470F48008840F00100B7
:102030000B49A1F8340C70470C480068C0B27047D7
:102040000948008840F002000549A1F8340C7047A7
:1020500004860D4200860D4288860D422C6C00409D
:1020600000600040A0860D42346C0040A4860D4202
:1020700039B1554A128842EA0002544BA3F80028AD
:1020800009E0514A12886FEA00039BB202EA030298
:102090004E4BA3F8002870474D48008840F01000D0
:1020A0004A49A1F804087047494800884FF6EF7183
:1020B00000EA01004549A1F804087047002145489D
:1020C00001884248B0F8180841EA0040704700B55E
:1020D0000246FFF7E1FF100C3F4908803B49A1F899
:1020E0001C28FFF7E1FF00BD00B50246FFF7D4FF53
:1020F000C2F30340394908803449A1F80C28FFF79E
:10210000D3FF00BD00B50246FFF7C6FF100C3449EF
:1021100008802E49A1F82428FFF7C6FF00BD002043
:10212000304909884FEA01714FEA11302749B1F867
:10213000141841EA0000704700BF2548008810F0DD
:10214000200FFAD07047224800884FF6F77100EA56
:1021500001001E49A1F8040800BF1D48008810F0C6
:10216000080FFAD0704701460020194A12880A4227
:1021700001D0012000E000207047154909886FEA6E
:10218000000292B201EA0201104AA2F80418704754
:10219000014600200E4A128802EA0102D0B20B4A20
:1021A000B2F800280A4202D008B1012000E0002065
:1021B0007047074909886FEA000292B201EA0201FA
:1021C000024AA2F80418704700280040002000408E
:1021D000042800401C28004018280040082800401F
:1021E000202800401028004010B501210807FEF704
:1021F00069FF00214FF08050FEF764FF10BD2C49AD
:10220000086270472A490861704701460020294A40
:10221000106820F0E000084310607047264908600D
:10222000704710B502460020224B186820F00300CA
:1022300010431860214B1B6843F004034FF0E02467
:10224000C4F8103D012901D130BF00E020BF1B4B75
:102250001B6823F004034FF0E024C4F8103D10BDC8
:102260001448006840F004001249086008460068FD
:1022700040F0020008601148006840F004004FF090
:10228000E021C1F8100D00BF00BF30BF704701460C
:102290000020084A52680A4201D0012000E00020D4
:1022A00070470449096841EA8001024A1160704799
:1022B00000000E4200700040A0000E4210ED00E051
:1022C0000020474908604749C1F8040446490860AE
:1022D00001F1040108604548454908607047002144
:1022E0003F498279DAB33F4AD2F8002403689A431F
:1022F0003C4BC3F800241A46D2F8042403689A43DE
:1023000001F104031A60027911440A68036842EA81
:1023100003020A60334AD2F80824036822EA03025F
:10232000304BC3F808241A46D2F80C24036822EA7A
:102330000302304B1A604279102A11D1294AD2F88F
:10234000082403681A43274BC3F808241A46D2F816
:102350000C2403681A43234BC3F80C240EE007E057
:102360001F49427911440A6803681A430A6005E06C
:10237000027911440A6803689A430A607047002191
:10238000016001710C2141710021817170471A496E
:10239000096841EA0001134AC2F810147047014667
:1023A0000020134A12680A4201D0012000E00020F8
:1023B00070470F4908607047014600200022084B13
:1023C0001B6803EA0102074BD3F814340B4202D016
:1023D0000AB1012000E000207047054908607047FD
:1023E000000401400000014008040140FFFF0F000D
:1023F000140401400C040140100401400E4908601F
:1024000070470D49486070470B49886070474AF62D
:10241000AA200949086070474CF6CC40064908607C
:10242000704701460020044AD2680A4201D00120C8
:1024300000E00020704700000030004010B501218E
:102440004807FEF73FFE00214FF00050FEF73AFE2E
:1024500010BD30B5002200235F4C226840F6FE74A8
:1024600004FA00F422EA0402D1E9004544EA050432
:102470008D6844EA0504CD6844EA050303FA00F4D4
:1024800044EA0202554CC4F8002430BD002101602A
:1024900041608160C160704759B14F4A12684FF086
:1024A000010303FA00F342EA03024C4BC3F8002491
:1024B0000AE0494A12684FF0010303FA00F322EAE6
:1024C0000302464BC3F80024704759B1424A1268D0
:1024D0004FF4805303FA00F342EA03023F4BC3F880
:1024E00000240AE03C4A12684FF4805303FA00F3D8
:1024F00022EA0302394BC3F80024704710B569B1D2
:10250000374A12684FEA10144FF0010303FA04F33C
:1025100042EA0302314BC3F804240CE0304A12684B
:102520004FEA10144FF0010303FA04F322EA030206
:102530002A4BC3F8042410BD38B12949096841F079
:102540000301264AC2F8041406E02549096821F06F
:102550000301224AC2F80414704710B54AB11E4B59
:102560001B6801FA00F443EA04031C4CC4F800346D
:1025700008E0194B1B6801FA00F423EA0403174C26
:10258000C4F8003410BD0022134A00F108031A44B5
:10259000116070470022104A00F114031A441160C0
:1025A000704730B500240023082802D142EA0124F4
:1025B00001E042EA0144084B00F120052B441C6075
:1025C00030BD01460022044A2C2000EB9100024459
:1025D000106880B270470000007400400070004036
:1025E0000474004010B50446FC48844209D101211E
:1025F0008803FEF75AFD00214FF48040FEF755FD99
:1026000032E0F748844209D101214804FEF75AFD1F
:1026100000214FF40030FEF755FD25E0F1488442DB
:1026200009D101218804FEF74DFD00214FF48020DF
:10263000FEF748FD18E0EC48844209D10121C804A6
:10264000FEF740FD00214FF40020FEF73BFD0BE0BC
:10265000E648844208D101210805FEF733FD002138
:102660004FF48010FEF72EFD10BD2DE9F04786B027
:1026700005460E460024A24600BFA1460027B089A9
:1026800000B100BF2F462C8A4CF6FF700440F08842
:1026900004432C82AC894EF6F3100440B088318993
:1026A0000843718908430443AC81AC8A4FF6FF406C
:1026B0000440B0890443AC8201A8FEF76FFCC74810
:1026C000874202D1DDF810A001E0DDF80CA0A88956
:1026D00010F4004F08D00AEBCA0000EB0A10316872
:1026E0004900B0FBF1F807E00AEBCA0000EB0A1062
:1026F00031688900B0FBF1F86420B8FBF0F0040108
:102700002009642101FB1089A88910F4004F08D02A
:10271000322000EBC900B0FBF1F000F007000443E9
:1027200008E0322000EB09106421B0FBF1F000F06A
:102730000F0004432C8106B0BDE8F0874FF416511A
:10274000016000218180C18001810C214181002133
:102750008181704710B502460020108A4FF2FF03B6
:1027600018400B884C8823438C882343CC88234310
:102770001843108210BD0021018041808180C180FA
:10278000704721B1828942F40052828104E082893B
:102790004DF6FF731A4082817047F0B5034600245E
:1027A000002600250020A1F510676A3F00D100BF78
:1027B0001846C1F3421401F01F06012707FA06F577
:1027C000012C01D10C3004E0022C01D1103000E0CA
:1027D00014301AB107682F43076002E00768AF435F
:1027E0000760F0BD10B51AB1838A0B43838204E001
:1027F000838ACC43A4B22340838210BD028A4FF661
:10280000F0731A400282028A0A4302827047828968
:102810004FF2FF731A40828182890A438281704796
:1028200021B1828942F00202828104E082894FF65E
:10283000FD731A4082817047028A4FF6DF731A4097
:102840000282028A0A430282704721B1028A42F45C
:102850008042028204E0028A4BF6FF731A40028231
:102860007047C1F308028280704701468888C0F330
:1028700008007047818941F0010181817047028B16
:10288000D2B20283028B42EA012202837047028B9A
:1028900002F47F420283028B0A430283704721B114
:1028A000828A42F02002828204E0828A4FF6DF733D
:1028B0001A408282704721B1828A42F010028282DD
:1028C00004E0828A4FF6EF731A408282704721B18A
:1028D000828A42F00802828204E0828A4FF6F7730D
:1028E0001A408282704721B1828942F4004282817B
:1028F00003E08289C2F30E028281704721B1828A8D
:1029000042F40062828204E0828A4FF2FF731A402E
:1029100082827047828A4FF6FB731A408282828AD3
:102920000A438282704721B1828A42F00202828287
:1029300004E0828A4FF6FD731A4082827047024695
:102940000020B1F5007F00D100BF13880B4201D0F9
:10295000012000E00020704701F40072B2F5007F12
:1029600000D100BFCA430280704770B50246002400
:10297000002300250020A1F510666A3E00D100BFAB
:10298000C1F3421501F01F03012606FA03F3012DDE
:1029900002D19689334006E0022D02D1168A3340D7
:1029A00001E0968A33400C12012606FA04F41688D8
:1029B000344013B10CB1012000E0002070BD10B50F
:1029C00000220023A1F510646A3C00D100BF0A1266
:1029D00001249440A3B2DC43048010BD00380140C0
:1029E0000044004000480040004C004000500040BF
:1029F00010B50446FF48844209D101214806FEF77C
:102A000061FB00214FF00070FEF75CFB08E0012144
:102A10008806FEF757FB00214FF08060FEF752FB5F
:102A200010BD30B5024600200023146824F00204D3
:102A30001460146844F00104146000E05B1C5468E6
:102A400004F00104012C03D0A3F57F44FF3CF5D131
:102A5000546804F00104012C01D000206EE08C7950
:102A6000012C04D1146844F08004146003E014685D
:102A700024F080041460CC79012C04D1146844F053
:102A80004004146003E0146824F0400414600C7ADD
:102A9000012C04D1146844F02004146003E014688D
:102AA00024F0200414604C7A012C04D1146844F002
:102AB0001004146003E0146824F0100414608C7A8D
:102AC000012C04D1146844F00804146003E0146875
:102AD00024F008041460CC7A012C04D1146844F06A
:102AE0000404146003E0146824F0040414608C7877
:102AF000A407CD7844EA05640D7944EA05444D798C
:102B000044EA05540D886D1E2C43D461146824F0EA
:102B100001041460002300E05B1C546804F001040D
:102B2000012C03D1A3F57F44FF3CF5D1546804F098
:102B30000104012C01D1002000E0012030BD10B5BE
:102B40000021837A012202FA03F1AB4A126842F0B3
:102B50000102AA4BC3F800261A46D2F81C2622EA24
:102B60000102A74B1A60027BB2B9A64A126822EA98
:102B70000102A44B1A604288C38842EA0343A24A76
:102B8000847A42F834300288838842EA03439E4ABA
:102B9000847A02EBC4025360027B012A16D1994A5F
:102BA000126842EA0102974B1A604288038842EA9F
:102BB0000343954A847A42F83430C288838842EAD3
:102BC0000343914A847A02EBC4025360C27A3AB951
:102BD0008E4A126822EA0102884BC3F8042606E0F6
:102BE0008A4A126842EA0102844BC3F80426028929
:102BF00032B9874A126822EA0102804BC3F81426D0
:102C00000289012A06D1824A126842EA01027B4BFC
:102C1000C3F81426427B012A06D1794A126842EA97
:102C20000102764BC3F81C26734A126822F0010297
:102C3000724BC3F8002610BD00218171C171017271
:102C400041728172C1728170C170032101710221D0
:102C500041710121018070476749096841F0010114
:102C6000664AC2F800166449096843F60E7221EA02
:102C70000201624AC2F800161146D1F8001641EA74
:102C80000021C2F800161146D1F8001621F001010A
:102C9000C2F80016704721B1026842F48032026027
:102CA00003E0026822F4803202607047E1B10268FA
:102CB00042F0800202604FF4C272125842F48073F4
:102CC0004FF4C27213504FF4CA72125842F4807318
:102CD0004FF4CA7213504FF4D272125842F48073F8
:102CE0004FF4D27213501BE0026822F0800202609F
:102CF0004FF4C272125822F480734FF4C272135010
:102D00004FF4CA72125822F480734FF4CA721350EF
:102D10004FF4D272125822F480734FF4D2721350CF
:102D2000704710B502460020936803F08063B3F14A
:102D3000806F00D110E0936803F00063B3F1006F7F
:102D400001D1012008E0936803F08053B3F1805F64
:102D500001D1022000E0042004287ED002F5C073D7
:102D600003EB00131B6803F0010402F5C07303EBCF
:102D700000131C600B7A7BB94B7A0C6843EA44530E
:102D800002F5C07404EB00142468234302F5C074F8
:102D900004EB0014236010E00B7A4C6843EAC40390
:102DA0004C7A234302F5C07404EB001424682343D7
:102DB00002F5C07404EB001423608B7A03F00F0358
:102DC0008B7202F5C07303EB00135B6823F00F04F2
:102DD00002F5C07303EB00135C6002F5C07303EBF4
:102DE00000135B688C7A234302F5C07404EB001473
:102DF00063600FE000640040006600400060004037
:102E00001C6600400C6600404066004004660040BE
:102E1000146600408B7B1C064B7B44EA03440B7B0F
:102E200044EA0323CC7A234302F5C07404EB001474
:102E3000A3608B7C1C064B7C44EA03440B7C44EA75
:102E40000323CC7B234302F5C07404EB0014E3603E
:102E500002F5C07303EB001300E007E01B6843F0CA
:102E6000010402F5C07303EB00131C6010BD10B524
:102E70000246002321B1012907D002290FD109E020
:102E80009068F84C00EA04030BE09068F64C00EA06
:102E9000040306E09068F54C00EA040301E0002317
:102EA00000BF00BFF24C181BA34216D007DC83B151
:102EB0006FF0806018180ED0022818D111E0B0F51C
:102EC000007F10D0EB4C001909D0B0F5003F0ED1B7
:102ED0000BE002230DE000230BE0002309E00023B8
:102EE00007E0012305E0012303E0012301E00023C3
:102EF00000BF00BFD8B210BD21B1012907D00229FF
:102F00000FD109E0826842F0800282600AE08268A4
:102F100042F40042826005E0826842F4000282606E
:102F200000E000BF00BF704710B500F5D87303EB99
:102F300001131B6803F004031372137A53B900F5ED
:102F4000D87303EB01131B6840F2FF7404EA535378
:102F5000136009E000F5D87303EB01131B686FF0F1
:102F6000604404EAD303536000F5D87303EB011304
:102F70001B6803F00203537200F5D87303EB0113CF
:102F80005B6803F00F03937200F5D87303EB011332
:102F90005B681B0AD37400F5D87303EB01139B68BD
:102FA000D37200F5D87303EB01139B681B0A1373EC
:102FB00000F5D87303EB01139B681B0C537300F5EA
:102FC000D87303EB01139B681B0E937300F5D87342
:102FD00003EB0113DB68D37300F5D87303EB011324
:102FE000DB681B0A137400F5D87303EB0113DB686D
:102FF0001B0C537400F5D87303EB0113DB681B0E35
:10300000937421B9C36843F02003C36003E00369EC
:1030100043F02003036110BD21B9C26842F02002D1
:10302000C26003E0026942F020020261704702467A
:10303000002019B9D36803F0030006E0012903D189
:10304000136903F0030000E00020704710B502464A
:103050000B4600204FF6FF71BBB9146824F0020440
:1030600044F00104146000E0491E546804F00304B5
:10307000012C01D00029F7D1546804F00304012C7D
:1030800001D0002032E0012030E0012B13D1146880
:1030900024F00304146000E0491E546814F0030F88
:1030A00001D00029F8D1546814F0030F01D000209A
:1030B0001CE001201AE0022B17D1146824F001044F
:1030C00044F00204146000E0491E546804F0030454
:1030D000022C01D00029F7D1546804F00304022C1B
:1030E00001D0002002E0012000E0002010BD0146D8
:1030F00000200A6822F0010242F002020A604A68D7
:1031000002F00302022A00D10120704701464FF667
:10311000FF7200200B6823F002030B6000E0521ED8
:103120004B6803F00203022B01D1002AF7D14B6850
:1031300003F00203022B00D001207047014600205B
:103140008A6902F070007047014600208A69100EFB
:103150007047014600208A69C2F3074070471AB1E0
:1031600043690B43436102E043698B43436170470A
:1031700010B50246002011F4700F08D09369C1F316
:103180001304234201D001202DE000202BE011F098
:10319000807F08D05368C1F31304234201D001207B
:1031A00021E000201FE011F0006F08D09368C1F308
:1031B0001304234201D0012015E0002013E011F098
:1031C000007F08D0D368C1F31304234201D001204B
:1031D00009E0002007E01369C1F31304234201D082
:1031E000012000E0002010BD0022234B994202D1B3
:1031F0000023836111E0C1F3130211F0007F01D0BD
:10320000C2600AE011F0806F01D0026105E011F0A8
:10321000006F01D0826000E04260704702460020EB
:103220000A4201D0012000E00020704770B504463A
:103230000D4600266069284271D0B5F5807F68D0C0
:103240001CDC082D41D006DC012D2CD0022D30D005
:10325000042D7ED133E0102D3DD0202D41D0402DC6
:1032600077D144E0030000040003000800000310CD
:10327000000100080001FFF77000F030B5F5004FC5
:1032800061D009DCB5F5007F4AD0B5F5806F4DD02F
:10329000B5F5006F5DD150E0B5F5803F2DD0B5F5A7
:1032A000003F56D12FE0A0685549FFF7B7FF06460B
:1032B00051E0E0680321FFF7B1FF06464BE0E0680C
:1032C0000821FFF7ABFF064645E0E0681021FFF755
:1032D000A5FF06463FE020690321FFF79FFF064652
:1032E00039E020690821FFF799FF064633E020699D
:1032F0001021FFF793FF06462DE060680821FFF7D5
:103300008DFF064627E060681021FFF787FF06461D
:1033100021E0A0690121FFF781FF06461BE01BE0C9
:10332000A0690221FFF77AFF064614E0A069042194
:10333000FFF774FF06460EE00BE0A0697021FFF76F
:103340006DFF064607E060680421FFF767FF064649
:1033500001E0002600BF00E00026304670BDB1F558
:10336000007F3AD00FDC202928D006DC01291CD0B0
:1033700004291DD0082940D11DE0402921D0B1F5F4
:10338000807F3AD126E0B1F5004F31D006DCB1F5AF
:10339000806F25D0B1F5006F2FD124E0B1F5803FCB
:1033A00012D0B1F5003F28D111E0154A826025E026
:1033B0000822C26022E01022C2601FE008220261DF
:1033C0001CE01022026119E00822426016E010227F
:1033D000426013E00422426010E0042242600DE0EB
:1033E000042242600AE0002282610422426005E079
:1033F000002282610422426000E000BF00BF7047EB
:103400000101010010B500244FF40051FF48FDF701
:103410002CFC4FF48041FD48FDF725FC4FF4805112
:10342000FB48FDF720FC902000F0FFFE002000F09C
:10343000FCFE002000F0F9FE002000F0F6FEFF2068
:1034400000F0F3FE44EA0024FF2000F0EEFE044307
:103450004FF40051ED48FDF706FC204610BD08B5BD
:1034600001214FF48470FDF706FE4FF4C040ADF823
:10347000000010208DF8030003208DF8020069463B
:10348000E248FDF745FB4FF4C041E048FDF7EBFB98
:103490004FF48050ADF8000010208DF8030069460D
:1034A000DB48FDF735FB4FF48051D948FDF7DBFBD6
:1034B00000F030FEFFF7A6FF08BD70B5002400BF86
:1034C000641CB4F1704F01D3FF2070BD4FF4005164
:1034D000CE48FDF7CAFB4FF48041CC48FDF7C3FB53
:1034E0004FF48051CA48FDF7BEFB052000F09DFE59
:1034F000FF2000F09AFE05464FF40051C348FDF747
:10350000B2FB05F001000128DAD00020DDE770B53C
:1035100005460C461646002000F04DFEFFF7CDFF95
:103520004FF40051B948FDF7A0FB4FF48041B74874
:10353000FDF799FB4FF48051B548FDF794FB03204C
:1035400000F073FEC4F3074000F06FFEC4F30720E1
:1035500000F06BFEE0B200F068FE04E0FF2000F037
:1035600064FE28706D1C3000A6F101018EB2F5D109
:103570004FF40051A548FDF776FB70BD10B54FF430
:103580000051A248FDF771FB4FF480419F48FDF7C1
:103590006AFB4FF480519E48FDF765FB062000F062
:1035A00044FE4FF400519948FDF75DFB10BD10B586
:1035B0000446FFF782FFFFF7E1FF4FF40051934805
:1035C000FDF753FB4FF480419048FDF74CFB4FF45F
:1035D00080518F48FDF747FB202000F026FEC4F302
:1035E000074000F022FEC4F3072000F01EFEE0B208
:1035F00000F01BFE4FF400518448FDF734FB10BD72
:1036000010B5FFF75AFFFFF7B9FF4FF400517F489D
:10361000FDF72BFB4FF480417C48FDF724FB4FF472
:1036200080517B48FDF71FFBC72000F0FEFD4FF4E3
:1036300000517648FDF717FB10BD2DE9F041074614
:103640000D461446EEB2C6F58076B44200DC26463E
:103650003EE0FFF732FFFFF791FF4FF400516B4858
:10366000FDF703FB4FF480416848FDF7FCFA4FF487
:1036700080516748FDF7F7FA022000F0D6FDC5F348
:10368000074000F0D2FDC5F3072000F0CEFDE8B200
:1036900000F0CBFD4FF0000807E0387800F0C5FDE2
:1036A0007F1C08F101001FFA80F8B045F5DB4FF4EC
:1036B00000515648FDF7D7FAB44200D109E035442D
:1036C000A01B84B2FF2C02DD4FF4807600E026467A
:1036D000BFE700BFBDE8F0812DE9F05F8346894672
:1036E00016464FF4805000F046FE8246BAF1000FB5
:1036F00001D1BDE8F09F002000F05DFDC9F30F3758
:10370000C9F30B08C8F58054A64200DA344642E0FB
:1037100039034FF480525046FFF7F9FE002508E0C8
:1037200008EB05001AF80000FF2800D003E0681C31
:1037300085B2A542F4DB00BFA54215DA3803FFF7D6
:1037400036FF002507E01BF8050008EB05010AF825
:103750000100681C85B2A542F5DB39034FF48052A5
:103760005046FFF76AFF04E0224649465846FFF7F5
:1037700064FFB44200D10FE0A344A144301B86B2E1
:10378000781C87B24FF00008B6F5805F02DB4FF47B
:10379000805400E03446BBE700BF504600F0F8FD1F
:1037A00000BFA6E700B589B01AA30FCBCDE9072368
:1037B000CDE90501CCE000F0B0FF30BB002000F007
:1037C00045FC002300934FF6E07316A20A21084639
:1037D00000F0A8F9002300934FF6E07316A23A21F7
:1037E0000A2000F09FF9002300934FF6E07317A220
:1037F0004E210A2000F096F9002300934FF6E07363
:1038000018A24FF4BE71C82030E031E00020014022
:10381000000C01407777772E7072656368696E2EB1
:10382000636F6D00464C4153482D454E323551363D
:1038300034CAB5D1E90000004B5F75703A20666C60
:103840006173682077726974652E2E004B5F646F18
:10385000776E3A20666C61736820726561642E2E03
:1038600000000000B7B5BBD80000000000F05AF916
:10387000002300934FF6E07337A21C210A2000F0CA
:1038800051F901213848FDF7D4F9012827D10A2040
:1038900000F0CCFF01213448FDF7CBF9012817D106
:1038A0001022002105A8FFF717FF002300934FF611
:1038B000E073AFF2A00262210A2000F033F9002386
:1038C00000934FF6E07329A276210A2000F02AF92E
:1038D00000BF01212448FDF7ACF90028F9D10821E7
:1038E0002748FDF7A6F9E0B90A2000F09FFF08215C
:1038F0002348FDF79EF968B91022002101A8FFF7BF
:1039000006FE002300934FF6E07301AA9E210A20D1
:1039100000F008F900BF08211948FDF78AF90028CE
:10392000F9D018488088C82810DD16488088F0280B
:103930000CDA1448C088B0F5BE7F07DD1148C08896
:10394000B0F5C87F02DAFCF747FC02E000F0E5FEC4
:1039500031E700BF09B000BD466C61736820537544
:10396000636365737321000000080140466C617356
:1039700068205772697465205375636365737300BB
:10398000001801404000002070B504460D46164660
:103990002B4622462946204600F025FB304600F003
:1039A00032FA70BD2DE9FF4F85B081468A4600206E
:1039B000039083460798A0EB09050898A0EB0A0638
:1039C000CDF80490CDF808A0002D01DD012705E019
:1039D0000DB9002702E04FF0FF376D42002E02DDE7
:1039E0004FF0010806E016B94FF0000802E04FF072
:1039F000FF387642B54201DD2C4600E03446002017
:103A000004901EE0129ADDE90101FFF7BDFF039863
:103A100028440390B3440398A04206DD0398001B9A
:103A200003900198384480B20190A34505DDABEBCB
:103A3000040B0298404480B202900498401C80B26B
:103A40000490611C04988842DCDD09B0BDE8F08F69
:103A50002DE9F04704460D4616461F46DDF8208046
:103A6000B44201DCBD4201DDBDE8F0873B46324691
:103A70002946204600F0B7FA301B401C84B2781B60
:103A8000401C85B20BE0A94602E0404600F0BBF9BD
:103A90005FEA0900A9F101011FFA81F9F5D12000BF
:103AA000A4F101018CB2EED100BFDDE72DE9F041B8
:103AB00004460D4617466A1E91B2621E90B26A1CF9
:103AC00093B2621C92B200F08EFA002604E03846EF
:103AD00000F099F9701CC6B2092EF8DB211F88B2DC
:103AE0002B46211D8AB2294600F07DFA002604E00B
:103AF000384600F088F9701CC6B2092EF8DB281F82
:103B000081B2281D83B22246204600F06CFA0026BE
:103B100004E0384600F077F9701CC6B2092EF8DBD5
:103B2000BDE8F0812DE9FF4F89B005460F461446E8
:103B300000269FE02078802844DA2078A0F1200633
:103B40003601814806441022314601A8FFF7DFFC08
:103B500007F10F0083B2E81D82B23946284600F013
:103B600042FA4FF000091FE001A810F809B04FF029
:103B7000000812E00BF08000802803D10C9800F0C0
:103B800042F902E0169800F03EF94FEA4B604FEA26
:103B9000106B08F1010000F0FF08B8F1080FE9DB35
:103BA00009F1010000F0FF09B9F1100FDCDB641C22
:103BB00005F1080085B2E92D5CDD002507F1100054
:103BC00087B257E0207881381FFA80FABE200AFBBE
:103BD00000F694F801A0BAF17F0F04DAAAF14000D0
:103BE0001FFA80FA03E0AAF141001FFA80FA564456
:103BF0007601564806442022314601A8FFF787FC8B
:103C000007F10F0083B205F10F0082B23946284652
:103C100000F0E9F94FF000081FE001A810F808B023
:103C20004FF0000912E00BF08000802803D10C98BF
:103C300000F0E9F802E0169800F0E5F84FEA4B6072
:103C40004FEA106B09F1010000F0FF09B9F1080F0C
:103C5000E9DB08F1010000F0FF08B8F1200FDCDB20
:103C600005F1100085B2E12D03DD002507F11000FC
:103C700087B2A41C207800287FF45CAF0DB0BDE8AB
:103C8000F08F2DE9FF4F91B00746884614469A46BB
:103C9000002653E02078813885B2BE2005FB00F66F
:103CA00065787F2D03DAA5F1400085B202E0A5F129
:103CB000410085B22E44C6EB8616254806443F22B5
:103CC00031466846FFF723FC08F1140083B207F180
:103CD000170082B24146384600F085F94FF00009DE
:103CE0001EE01DF809B00020109012E00BF08000DB
:103CF000802803D1504600F086F802E01E9800F0BC
:103D000082F84FEA4B604FEA106B1098401CC0B22B
:103D1000109010980828E9DB09F1010000F0FF0974
:103D2000B9F13F0FDDDB07F1150087B2DA2F04DDB3
:103D3000002708F115001FFA80F8A41C207800283D
:103D4000A8D115B0BDE8F08F4E465D00004C5D0077
:103D500082FC680008B501214FF4B070FDF78BF9C3
:103D600003208DF8020041F20100ADF80000182098
:103D70008DF803006946C248FCF7CAFE4FF633705F
:103D8000ADF800006946BF48FCF7C2FE4FF68070F0
:103D9000ADF800006946BC48FCF7BAFE08BD00B5A6
:103DA00097B002200190002002900520039000208F
:103DB00006900490012005900007079006200890C7
:103DC00000200A9010200B900002119080001390A8
:103DD0000020099001A81590169001210802FDF716
:103DE0003DF908A8FDF77DFA01210620FDF7DAFB71
:103DF00017B000BD0112A54A1180C1B24FF0D842E0
:103E0000A2F8FE1770470112A14A1180C1B24FF00B
:103E1000D842A2F80018704710B5FFF79BFFFFF7D4
:103E2000BEFF4FF4FA7401E0601E84B2002CFBDC8C
:103E30000120FFF7DFFF4FF48070FFF7E4FF03205E
:103E4000FFF7D8FF41F23000FFF7DDFF0820FFF752
:103E5000D1FF40F60800FFF7D6FF9020FFF7CAFF1A
:103E60004FF40040FFF7CFFF4FF48060FFF7C2FF31
:103E70004FF4C440FFF7C7FF40F20140FFF7BAFF1D
:103E80000120FFF7C0FFFF20FFF7B4FF0120FFF77D
:103E9000BAFF4FF48170FFF7ADFF4FF4D870FFF712
:103EA000B2FF4FF4E260FFF7A5FF1620FFF7ABFF6C
:103EB00040F21270FFF79EFF0F20FFF7A4FF40F2C1
:103EC0005270FFF797FF2F20FFF79DFF40F22470FD
:103ED000FFF790FF1A20FFF796FF40F25470FFF7AC
:103EE00089FF1820FFF78FFF4FF4FA7401E0601E7E
:103EF00084B2002CFBDC4FF46070FFF77BFF0020E6
:103F0000FFF781FF40F28130FFF774FF45F6107034
:103F1000FFF779FF40F28230FFF76CFF40F6023086
:103F2000FFF771FF40F28330FFF764FF40F2146047
:103F3000FFF769FF4FF46170FFF75CFF40F211106B
:103F4000FFF761FF40F28530FFF754FF0020FFF7D5
:103F50005AFF40F28630FFF74DFF4AF60B10FFF78D
:103F600052FF40F28730FFF745FF40F20660FFF74F
:103F70004AFF4FF46270FFF73DFF40F21260FFF717
:103F800042FF40F28930FFF735FF40F21110FFF792
:103F90003AFF40F20270FFF72DFF3B20FFF733FF9F
:103FA000FF20FFF727FF0020FFF72DFF0720FFF777
:103FB00021FF4FF48070FFF726FF4FF4FA7401E001
:103FC000601E84B2002CFBDC4FF40070FFF712FF80
:103FD0000020FFF718FF40F20120FFF70BFF002041
:103FE000FFF711FF10BD70B506460C4615464FF49D
:103FF0000470FFF7FFFE3046FFF705FF40F2112087
:10400000FFF7F8FE2846FFF7FEFE40F21220FFF70A
:10401000F1FE2046FFF7F7FE40F21320FFF7EAFE1D
:104020001846FFF7F0FE4FF40070FFF7E3FE30464E
:10403000FFF7E9FE40F20120FFF7DCFE2046FFF724
:10404000E2FE40F20220FFF7D5FE70BD70B50646D5
:1040500040F28F13EF2200210846FFF7C4FF00242F
:104060000BE0002504E03046FFF7CDFE681C85B26A
:10407000B5F5C87FF7DB601C84B2F02CF1DB70BDB6
:10408000002001400014014000180140FE07006CB0
:104090000008006C00B587B0FCF73AFC012141F242
:1040A0000400FCF7E8FFE020ADF8180018208DF8B8
:1040B0001B0003208DF81A0006A96D48FCF728FDA7
:1040C000E0216B48FCF7CFFD0020ADF804004FF471
:1040D0008270ADF806000020ADF808000220ADF8AF
:1040E0000A000120ADF80C004002ADF80E003820A7
:1040F000ADF810000020ADF812000720ADF8140054
:1041000001215C48FDF773FC01A95A48FDF7CCFB7F
:1041100007B000BD00B587B0FCF7FAFB012108200D
:10412000FCF7A9FF01218803FCF7B2FF4FF46040C0
:10413000ADF8180018208DF81B0003208DF81A0028
:1041400006A94D48FCF7E4FC0020ADF804004FF44C
:104150008270ADF806000020ADF80800ADF80A0046
:10416000ADF80C004FF40070ADF80E003820ADF83B
:1041700010000020ADF812000720ADF81400012156
:104180003E48FDF734FC01A93C48FDF78DFB07B024
:1041900000BD10B50446374800884FF6C771084087
:1041A00034490880084600882043088001213148AE
:1041B000FDF71DFC10BD10B50446304800884FF6D1
:1041C000C77100EA01002E49A1F800080846B0F8BE
:1041D000000840EA0400A1F800084FF00101274858
:1041E000FDF705FC10BD70B50446002507E0681C0E
:1041F00085B242F21070854201DDFF2070BD0221C0
:104200001C48FDF77DFC0028F1D021461948FDF738
:1042100024FC00BF01211748FDF772FC0028F9D0EB
:104220001448FDF71CFCC0B2E8E770B50446002551
:1042300007E0681C85B242F21070854201DDFF2064
:1042400070BD02210D48FDF75BFC0028F1D021462E
:104250000A48FDF702FC00BF01210848FDF750FCA9
:104260000028F9D00548FDF7FAFBC0B2E8E70000E6
:104270000008014000300140000C014000380040BF
:104280000030004010B501E00280801C0B00A1F15D
:104290000101F9D110BD10B500224FF4C8514348B7
:1042A000FFF7F0FF01204249087010BD2DE9F041F1
:1042B00006463F48007808B9FFF7EDFF26B13C48B5
:1042C0008089B6EB401F03D94FF0FF30BDE8F08185
:1042D000C6F34F1416F01F0F01D0601C84B24FF0CC
:1042E000000841F6FF051FE03148806830F81500EE
:1042F00020B908F101001FFA80F801E04FF0000832
:10430000A04510D1002705E029488068E91920F868
:1043100011407F1CA742F7DB25488089001B2449F8
:1043200088816801D2E76D1E002DDDDA4FF0FF3085
:10433000CCE770B504461E48007818B9FFF7ABFF0C
:10434000FF2070BDB4F5483F13D264091848806857
:1043500030F814501649896801EB440000222946C0
:10436000FFF790FF12488089284411498881002076
:10437000E7E7FF20E5E770B505462846FFF796FF1B
:104380000446601C00D170BD094840682044FAE72B
:1043900070B5044604B970BD05484068251A284622
:1043A000FFF7C7FF002400BFF5E700000020036807
:1043B000300000202DE9FE4380461820FFF7FBFE69
:1043C000002424E04021FF48FCF74FFC4046FFF763
:1043D0000AFFFF20FFF707FF2DF814003DF8140037
:1043E0000006000C2DF81400FF20FFF7FCFE3DF83E
:1043F000141008432DF814003DF81400C0102DF8D7
:1044000014004021EF48FCF72EFC601CC4B2052CC0
:10441000D8DB002416E0601CC5B20FE03DF81400A4
:104420003DF81510884207DA3DF814603DF8150094
:104430002DF814002DF81560681CC5B2052DEDDBB4
:10444000601CC4B2042CE6DB04250027012404E030
:104450003DF814000744601CC4B2AC42F8DB0320F2
:10446000B7FBF0F086B23046BDE8FE832DE9F04799
:1044700004460D46D020FFF79DFF06469020FFF72B
:1044800099FF0746D020FFF795FF80469020FFF761
:1044900091FF8146464503DDA6EB0800208002E03F
:1044A000A8EB060020804F4503DDA7EB090028801C
:1044B00002E0A9EB070028802088142802DC288865
:1044C000142802DDFF20BDE8F08706EB080000EBB2
:1044D000D071C1F34F01218007EB090000EBD071CF
:1044E000C1F34F0129802088B0F57A6F09DC20885C
:1044F000642806DB2888B0F57A6F02DC28886428F7
:1045000001DAFF20DFE70020DDE72DE9F041074673
:10451000884614461D460020FFF798FD4FF4784268
:1045200041463846FFF7C2FA00261AE029462046DF
:10453000FFF79CFF58B9701CC6B20A2E07DD002297
:1045400041463846FFF7B2FA0020BDE8F08119F184
:10455000020F06D9002241463846FFF7A7FAFF208E
:10456000F3E7E3E72DE9F04186B06B4602AA0A21A2
:104570000846FFF7CAFF10B106B0BDE8F0814FF45E
:10458000FA7000F053F90DF102030DF10A0240F246
:1045900085110A20FFF7B9FF00B1EDE74FF4FA707B
:1045A00000F044F901AB03AA0A21E520FFF7ADFFB3
:1045B00000B1E1E74FF4FA7000F038F90DF10603AD
:1045C0000DF10E0240F28511E520FFF79EFF00B1CC
:1045D000D2E74FF4FA7000F029F9BDF80810BDF8E1
:1045E0000A20881800EBD071C1F34F01ADF8141008
:1045F000BDF80010BDF80420881800EBD071C1F39D
:104600004F01ADF81010BDF80E10BDF80C20881841
:1046100000EBD071C1F34F01ADF81610BDF80610D4
:10462000BDF80220881800EBD071C1F34F01ADF83E
:104630001210BDF81610BDF81420881A09F002FBFC
:1046400006460146604809F0FFF90446BDF812101D
:10465000BDF81020881A09F0F5FA064601465B48B5
:1046600009F0F2F90546BDF8160009F003FB804693
:10467000214609F013FB0746554909F0E2FB0646BF
:1046800009F0A4FA40B253494870BDF8120009F08D
:10469000F1FA8046294609F001FB07464E4909F028
:1046A000D0FB064609F092FA40B24A4988700846A3
:1046B00044608560592008700C2248494548FFF73E
:1046C0000BF800BF58E708B501212020FCF7D3FC08
:1046D0004020ADF8000010208DF8030003208DF875
:1046E000020069463748FCF713FA8020ADF8000055
:1046F00048208DF8030069463248FCF709FAFFF7B5
:10470000C9FC0C2235493348FEF701FF31480078D7
:10471000592801D0FFF726FF08BD2DE9F04180217F
:104720002848FCF786FAF0BB2D49881EFFF79EFE4D
:1047300010B1FF20BDE8F081264991F9010009F090
:1047400081FA06462649891E088809F093FA074629
:1047500020484168384609F0A1FA0546314609F07B
:1047600011F9044609F04EFA1D49891E888019493D
:1047700091F9020009F066FA06461949891E48882F
:1047800009F078FA074613488168384609F086FA36
:104790000546314609F0F6F8044609F033FA1049A7
:1047A000891EC88000E023E008468088EF2801DDEC
:1047B000EF2088800A48801EC088B0F5C87F15DBCE
:1047C00010E000000014014000005B430080BD4386
:1047D00000006543E02A00200080C24320465D00BF
:1047E0004200002040F28F100249C8800020A1E75B
:1047F000FF209FE740000020014601EBC1024FF07F
:10480000E0235A6101221A6100229A6100BF4FF031
:10481000E022106910F0010F02D010F4803FF6D0B2
:1048200000224FF0E0231A619A617047014642F27C
:1048300028324A434FF0E0235A6101221A610022D4
:104840009A6100BF4FF0E022106910F0010F02D012
:1048500010F4803FF6D000224FF0E0231A619A61F5
:10486000704710B5FCF7A0FA4FF48030FCF7BCFAA3
:10487000FCF7F9FA012820D10020FCF736FB4FF4B1
:104880008060FCF73BFB0020FCF741FB4FF4E0119C
:104890004FF44030FCF70CFB0120FCF715FB00BF88
:1048A0003920FCF7C4FA0028FAD00220FCF70FFBED
:1048B00000BFFCF715FB0828FBD110BD08B501218E
:1048C0001020FCF7D8FB4FF6FF70ADF80000102069
:1048D0008DF8030003208DF8020069460348FCF7B9
:1048E00017F9FF210148FCF7C7F908BD0010014086
:1048F00008B501210820FCF7BEFB2020ADF8000020
:1049000010208DF8030003208DF80200694602484C
:10491000FCF7FEF808BD0000000C014008B50121BD
:104920001020FCF7A8FBFF20ADF8000010208DF848
:10493000030003208DF8020069460248FCF7E8F8FE
:1049400008BD00000010014000B587B0012140F211
:104950000520FCF790FB4FF40040FCF7F4FA2248E6
:10496000FDF704F90220ADF8180000208DF81B00B7
:1049700003208DF81A0006A91C48FCF7C9F800208E
:1049800001908DF808008DF809004FF46020039025
:104990000020049001208DF8140001A91248FDF7B1
:1049A0000CF90723012211460F48FDF79EF901215A
:1049B0000D48FDF72EF90C48FDF74DF900BF0A48E8
:1049C000FDF74EF90028FAD10748FDF753F900BF6B
:1049D0000548FDF754F90028FAD101210248FDF7F6
:1049E00058F907B000BD0000002401400008014054
:1049F00008B501214420FCF73EFB0120ADF8000082
:104A000028208DF8030003208DF8020069467248C3
:104A1000FCF77EF81C20ADF8000048208DF803005C
:104A200003208DF8020069466C48FCF771F80121FB
:104A30006948FCF71AF908BD08B5C9E0FFF76DFE33
:104A4000D8BB0020FFF702FB002300934FF6E07372
:104A500063A20A216420FFF765F8002300934FF654
:104A6000E07362A24FF4BE71C820FFF75BF84FF607
:104A7000E0730093DC234622B4210A20FEF7E8FF0E
:104A80004FF6E0730093DC239622B4215A20FEF700
:104A9000DFFF4FF6E07300934FF48C734622F02152
:104AA0000A20FEF7D5FF4FF6E07300934FF48C73A6
:104AB0009622F0215A20FEF7CBFF01214648FCF751
:104AC000B8F8012817D10A20FFF7B0FE01214248AB
:104AD000FCF7AFF8012807D11F230093DC234622FF
:104AE000B4210A20FEF7B4FF00BF01213A48FCF7C9
:104AF000A0F80028F9D108213848FCF79AF8B0B995
:104B00000A20FFF793FE08213448FCF792F838B9E1
:104B10001F230093DC239622B4215A20FEF798FF2E
:104B200000BF08212D48FCF784F80028F9D00421A3
:104B30002A48FCF77EF8B8B90A20FFF777FE04216F
:104B40002648FCF776F840B91F2300934FF48C7386
:104B50004622F0210A20FEF77BFF00BF04211F48F8
:104B6000FCF767F80028F9D010211C48FCF761F821
:104B7000B8B90A20FFF75AFE10211848FCF759F877
:104B800040B91F2300934FF48C739622F0215A20D2
:104B9000FEF75EFF00BF10211048FCF74AF800281E
:104BA000F9D014488088C82810DD12488088F02881
:104BB0000CDA1048C088B0F5BE7F07DD0D48C0880C
:104BC000B0F5C87F02DAFBF707FB02E0FFF7A5FDAF
:104BD00034E700BF08BD0000000801400018014094
:104BE000B0B4BCFCB2E2CAD400000000B7B5BBD878
:104BF000000000004000002008B501210802FCF779
:104C00003AFA4FF40060ADF8000010208DF8030070
:104C100003208DF802006946B248FBF779FF08BD12
:104C200008B54FF40060ADF8000004208DF80300D3
:104C300003208DF802006946AA48FBF769FF08BD0A
:104C400008B54FF40060ADF8000010208DF80300A7
:104C500003208DF802006946A248FBF759FF08BD02
:104C600010B5FFF7EDFF4FF400619E48FBF7FDFF25
:104C70004FF4F070FBF796FD4FF400619948FBF795
:104C8000F2FF4FF4F070FBF78DFD10BD70B50446D8
:104C90000025FFF7D5FF00BF20E04FF400619148E9
:104CA000FBF7E3FF0F20FBF77DFD04F00100012877
:104CB00004D1C1028B48FBF7D6FF04E04FF400613A
:104CC0008848FBF7D2FF3C20FBF76CFD4FF40061F6
:104CD0008448FBF7C8FF6410681CC5B2082DDCDBF4
:104CE00070BD70B50025002400BF22E06410FFF7FE
:104CF000A7FF4FF400617B48FBF7B7FF0420FBF7E9
:104D000051FD4FF400617748FBF7ADFF0A20FBF738
:104D100049FDFFF785FF4FF400617248FBF789FFFB
:104D2000012801D144F080042D20FBF73BFD681CD5
:104D3000C5B2082DDADB204670BD2DE9F047FFF73C
:104D40008FFFCC20FFF7A2FF4420FFF79FFF0A2030
:104D5000FBF74BFDFFF784FFCC20FFF797FFBE204A
:104D6000FFF794FFFFF7BDFF8246FFF7BAFF8146CA
:104D7000C8460AEB08201FFA80F808F47840B0F51E
:104D8000784F0FD16FEA0800401C1FFA80F84046A8
:104D900008F0DFFA06460022534B08F0EDFA04460D
:104DA0000D4609E0404608F0D4FA064600224F4B73
:104DB00008F0E2FA04460D4620462946BDE8F08791
:104DC0002DE9FE438AE0FFF7A8FCA8B90020FFF711
:104DD0003DF9002300934FF6E07345A20A210846EF
:104DE000FEF7A0FE002300934FF6E07345A24FF4B8
:104DF000BE71C820FEF796FEFFF79FFF04460D46E2
:104E00000022424B2046294608F0B6FA064608F032
:104E100073FA1FFA80F84FF47A7098FBF0F0303094
:104E2000C0B28DF804004FF47A7098FBF0F100FBEB
:104E30001180642190FBF1F03030C0B28DF8050094
:104E40002E208DF806004FF47A7098FBF0F100FBED
:104E50001180642190FBF1F201FB12000A2190FB0A
:104E6000F1F03030C0B28DF807004FF47A7098FB43
:104E7000F0F100FB1180642190FBF1F201FB1200C4
:104E80000A2190FBF1F201FB12003030C0B28DF824
:104E9000080043208DF8090000208DF80A00002347
:104EA00000934FF6E07301AA9620FEF73BFE1848E8
:104EB0008088C82810DD16488088F0280CDA14484D
:104EC000C088B0F5BE7F07DD1148C088B0F5C87F47
:104ED00002DAFBF781F902E0FFF71FFC73E700BF7E
:104EE000BDE8FE83002001400000B0BF0000B03FDD
:104EF00044533138423230CEC2B6C8BCECB2E2A321
:104F0000BA000000B7B5BBD800000000000059404F
:104F10004000002070B50446002600F046FA254601
:104F2000E11704EB11610912A02202EB4101C8B2A2
:104F300000F0DEFA00F0B1FAE11704EB116109129A
:104F4000A4EB0121C8B200F0D3FA00F0A6FA00F0F9
:104F50002CFAA12000F0CCFA00F09FFA002000F01B
:104F6000F9FA064600F07BFA00F03DFA304670BDD3
:104F700070B50446002500F018FA2646E11704EB48
:104F800011610912A02202EB4101C8B200F0B0FA8F
:104F900000F083FAE11704EB11610912A4EB01217F
:104FA000C8B200F0A5FA00F078FA00F0FEF9A120EE
:104FB00000F09EFA00F071FA012000F0CBFA0546ED
:104FC0002D02002000F0C6FA054300F00CFA284636
:104FD00070BD70B504460E4600F0E7F92546E117AE
:104FE00004EB11610912A02202EB4101C8B200F0EA
:104FF0007FFA00F052FAE11704EB11610912A4EBF9
:105000000121C8B200F074FA00F047FA304600F00F
:105010006FFA00F042FA00F0E6F90A20FBF7E5FB30
:1050200070BD70B504460D4600F0BFF92646E11785
:1050300004EB11610912A02202EB4101C8B200F099
:1050400057FA00F02AFAE11704EB11610912A4EBF8
:105050000121C8B200F04CFA00F01FFA281200F04B
:1050600047FA00F01AFAE8B200F042FA00F015FA36
:1050700000F0B9F90A20FBF7B8FB70BD30B585B078
:105080000024F8E0FFF749FBF0BB0020FEF7DEFF4D
:10509000002300934FF6E07379A20A210846FEF739
:1050A00041FD002300934FF6E0737BA21B210A20F1
:1050B000FEF738FD002300934FF6E0737BA22C210E
:1050C0000A20FEF72FFD002300934FF6E0737EA227
:1050D0003D210A20FEF726FD002300934FF6E073E2
:1050E00080A264210A20FEF71DFD002300934FF6E5
:1050F000E07383A296210A20FEF714FD002300939B
:105100004FF6E07382A200E00DE0A7210A20FEF72F
:1051100009FD002300934FF6E07381A24FF4BE71A6
:10512000C820FEF7FFFC01217F48FBF782FD012824
:1051300043D10A20FFF77AFB01217B48FBF779FD79
:10514000012833D1601CC0B2044601460020FFF79D
:1051500040FF642094FBF0F03030C0B28DF80C00BA
:10516000642094FBF0F100FB11400A2190FBF1F068
:105170003030C0B28DF80D00642094FBF0F100FBDC
:1051800011400A2190FBF1F201FB12003030C0B255
:105190008DF80E0000208DF80F00002300934FF6CD
:1051A000E07303AA9621A020FEF7BCFC00BF0121FA
:1051B0005D48FBF73EFD0028F9D108215B48FBF76D
:1051C00038FDF0BB0A20FFF731FB08215748FBF7F9
:1051D00030FD80BB0020FFF79DFE0546642095FB57
:1051E000F0F03030C0B28DF80400642095FBF0F18F
:1051F00000FB11500A2190FBF1F03030C0B28DF865
:105200000500642095FBF0F100FB11500A2190FB92
:10521000F1F201FB12003030C0B28DF80600002020
:105220008DF80700002300934FF6E07301AAA72131
:10523000A020FEF777FC00BF08213C48FBF7F9FCF3
:1052400000E001E00028F7D039488088C82810DD48
:1052500037488088F0280CDA3548C088B0F5BE7F22
:1052600007DD3348C088B0F5C87F02DAFAF7B4FF2B
:1052700002E0FFF752FA05E700BF05B030BD0000BD
:1052800041543234433032B4E6B4A2C6F7B6C1D08A
:10529000B4CAB5D1E900000050423130205042314B
:1052A0003120CAC7494943BDD3BFDA0054686520DD
:1052B0004B5F55502069733A4154323443303220A9
:1052C0005772697465000000546865204B5F444F55
:1052D000574D2069733A415432344330322052657D
:1052E00061640000577269746520646174612052C2
:1052F000616E67652069733A20302D3235350000C4
:10530000577269746520646174612069733A0000A2
:105310005265616420646174612069733A00000021
:10532000B7B5BBD8000000000008014000180140DC
:105330004000002008B501210820FBF79CFE4FF437
:105340004060ADF8000003208DF8020010208DF8B9
:10535000030069469648FBF7DBFB4FF480619448F5
:10536000FBF781FC4FF400619148FBF77CFC08BD22
:1053700008B54FF40060ADF8000003208DF802007E
:1053800010208DF8030069468948FBF7C1FB08BD72
:1053900008B54FF40060ADF8000048208DF8030018
:1053A00069468348FBF7B4FB08BD10B5FFF7E0FF83
:1053B0004FF400617E48FBF756FC4FF480617C4857
:1053C000FBF751FC0520FBF7EDF94FF4006178483D
:1053D000FBF74BFC0620FBF7E5F94FF480617448BE
:1053E000FBF743FC10BD10B5FFF7C2FF4FF480611F
:1053F0006F48FBF73AFC4FF400616D48FBF735FC52
:105400004FF480616A48FBF72EFC0620FBF7CAF9CF
:105410004FF400616648FBF726FC0620FBF7C2F953
:1054200010BD10B54FF480616148FBF71EFCFFF71B
:105430009FFF4FF400615E48FBF717FC0220FBF76B
:10544000B1F94FF480615A48FBF70DFC0520FBF7DA
:10545000A9F94FF480615648FBF707FC10BD10B561
:105460004FF480615248FBF700FCFFF781FF4FF4D7
:1054700000614F48FBF7F7FB0220FBF793F94FF46D
:1054800080614B48FBF7EFFB0520FBF78BF94FF4EE
:1054900080614748FBF7E9FB10BD10B50024FFF71A
:1054A00077FF4FF400614248FBF7DDFB0120FBF77B
:1054B00079F94FF480613E48FBF7D5FB0120FBF7FB
:1054C00071F907E0601CC4B2FA2C03DDFFF78BFF13
:1054D000012010BD4FF400613548FBF7AAFB0028FE
:1054E000F0D14FF480613248FBF7BFFB0020F0E7BA
:1054F00070B504460025FFF73BFF4FF480612C4850
:10550000FBF7B3FB00BF22E004F08000002805DDBC
:105510004FF400612648FBF7A6FB04E04FF400615E
:105520002348FBF7A2FB6006040E4FF4806120487D
:10553000FBF799FB0220FBF735F94FF480611C481B
:10554000FBF793FB0220FBF72DF9681CC5B2082D71
:10555000DADB70BD70B5054600260024FFF718FFA2
:1055600000BF1BE04FF480611148FBF77EFB022077
:10557000FBF718F94FF480610D48FBF774FB6006E8
:10558000040E4FF400610A48FBF753FB08B1601C9E
:10559000C4B20120FBF706F9701CC6B2082EE1DB8D
:1055A00015B9FFF75CFF01E0FFF73BFF204670BD38
:1055B000000C014008B501210807FBF769FD012136
:1055C000C806FBF765FD0120FCF719FEFCF7EEFCB1
:1055D0000120FBF7C1FC00BF4120FBF728FC00289D
:1055E000FAD04FF48070FBF7D0FC0120FBF7D3FC1E
:1055F000FCF7A9FDFCF7A0FD01210846FCF738FDEA
:10560000FCF79AFD47F6FF70FCF76EFDFCF794FD82
:105610004FF4A060FBF79AFD03208DF800000020F6
:105620008DF8010002208DF8020001208DF80300A2
:105630006846FBF790FD08BD10B50420FCF7E9FCB7
:10564000A0F52541A5390FD0FFF7B4FFFCF774FD95
:1056500049F69270FCF73BFDFCF76EFD4AF2A5514E
:105660000420FCF7D0FC09E0FCF76DFDFCF764FDBD
:1056700001210846FCF7FCFCFCF75EFDFBF738FD5A
:1056800010BD2DE9FF41002500260027002490E0F1
:10569000FFF743F8A8B90020FEF7D8FC00230093D9
:1056A0004FF6E07345A20A210846FEF73BFA0023B5
:1056B00000934FF6E07344A24FF4BE71C820FEF78A
:1056C00031FA43480078012853D10020404908703E
:1056D000FCF7F4FC04464FF46160B4FBF0F085B2D3
:1056E0004FF46160B4FBF0F100FB11403C21B0FBD2
:1056F000F1F086B23C20B4FBF0F100FB114087B220
:105700000A2095FBF0F03030C0B28DF804000A207A
:1057100095FBF0F100FB11503030C0B28DF8050060
:105720003A208DF806000A2096FBF0F03030C0B227
:105730008DF807000A2096FBF0F100FB1160303075
:10574000C0B28DF808003A208DF809000A2097FBB6
:10575000F0F03030C0B28DF80A000A2097FBF0F16B
:1057600000FB11703030C0B28DF80B0000208DF8B6
:105770000C00002300934FF6E07301AA642150202F
:10578000FEF7D0F913488088C82810DD11488088BA
:10579000F0280CDA0F48C088B0F5BE7F07DD0D4851
:1057A000C088B0F5C87F02DAFAF716FD02E0FEF70E
:1057B000B4FF6DE700BFBDE8FF810000525443CA4B
:1057C000B1D6D3CAB5D1E900B7B5BBD80000000047
:1057D00058000020400000201FB5012140F20110B8
:1057E000FBF749FC4FF40040ADF80C0048208DF861
:1057F0000F0003A98148FBF78BF94FF40040FCF739
:10580000ECFD0F210620FBF797FA4FF400400190C2
:1058100000208DF808000C208DF8090001208DF87B
:105820000A0001A8FCF75BFD4FF4C060FBF78EFC9B
:1058300028208DF8000000208DF8010001208DF84F
:1058400002008DF803006846FBF785FC1FBD10B50C
:10585000002408E0601CC4B21420FAF7A3FFFA2C5D
:1058600001DB204610BD4FF400416448FBF7E1F92D
:105870000128EFD02046F5E700B589B060A30FCB33
:10588000CDE90323CDE90101B3E0FEF746FFF0B90E
:105890000020FEF7DBFB002300934FF6E0735CA2D1
:1058A0000A210846FEF73EF9002300934FF6E07305
:1058B0005BA21E210A20FEF735F9002300934FF664
:1058C000E0735BA24FF4BE71C820FEF72BF95A4873
:1058D0000078012876D100205749087057480068A1
:1058E000000E8DF8200055480068000C8DF821004E
:1058F00052480068000A8DF8220050480068C0B283
:105900008DF8230000204D4908609DF82000C11744
:1059100000EB1171091101AA515C8DF814109DF86A
:105920002000C11700EB11710911A0EB0111515CAE
:105930008DF815109DF82100C11700EB11710911A8
:10594000515C8DF816109DF82100C11700EB117104
:105950000911A0EB0111515C8DF817109DF8220080
:10596000C11700EB11710911515C8DF818109DF8E9
:105970002200C11700EB11710911A0EB0111515C5C
:105980008DF819109DF82300C11700EB1171091152
:10599000515C8DF81A109DF82300C11700EB1171AE
:1059A0000911A0EB0111515C8DF81B1000208DF83E
:1059B0001C00002300934FF6E07305AA1E217120FE
:1059C000FEF7B0F81E488088C82810DD1C48808883
:1059D000F0280CDA1A48C088B0F5BE7F07DD1848F9
:1059E000C088B0F5C87F02DAFAF7F6FB02E0FEF7EE
:1059F00094FE4AE700BF09B000BD0000002001404E
:105A000030313233343536373839414243444546F4
:105A1000BAECCDE2D2A3BFD8CAB5D1E900000000EC
:105A2000BAECCDE2D2A3BFD8BCFCC2EBA3BA000053
:105A3000B7B5BBD800000000600000205C0000206B
:105A40004000002010B545F25550FCF7D7FC04206B
:105A5000FCF7D7FC4FF44870FCF7D6FCFCF7D7FCFA
:105A6000FCF7DAFC10BD08B5FFF7ECFF3DE0FEF7F0
:105A700054FEA8B90020FEF7E9FA002300934FF680
:105A8000E0731BA20A210846FEF74CF8002300939E
:105A90004FF6E0731AA24FF4BE71C820FEF742F829
:105AA000FCF7B5FC002300934FF6E07316A26421C7
:105AB0000A20FEF737F80A20FEF7B8FE154880885E
:105AC000C82810DD13488088F0280CDA1148C088F7
:105AD000B0F5BE7F07DD0F48C088B0F5C87F02DA99
